:100000006F001062130000001300000013000000D6
:100010001300000013000000130000001300000094
:100020001300000013000000130000001300000084
:08003000130000007300100032
:100038000000000000000000760D0000780D0000B0
:10004800000000007A0D0000000000000000000021
:100058007C0D00007E0D0000000000000000000084
:10006800800D000000000000820D0000000000006C
:10007800840D0000860D0000880D0000280D00008A
:100088008C0D00008E0D0000900D0000920D0000F8
:10009800940D0000960D0000980D00009A0D0000C8
:1000A8009C0D00009E0D0000A00D0000A20D000098
:1000B800A40D0000A60D0000A80D0000AA0D000068
:1000C800AC0D0000AE0D0000B00D0000B20D000038
:1000D800B40D0000B60D0000B80D0000BA0D000008
:1000E800BC0D0000BE0D0000C00D0000C20D0000D8
:1000F800C40D0000C60D0000C80D0000CA0D0000A8
:10010800CC0D0000CE0D0000D00D0000D20D000077
:10011800D40D0000D60D000000000000D80D00002E
:10012800DA0D0000DC0D0000DE0D0000E00D00001F
:10013800E20D0000E40D0000E60D0000E80D0000EF
:10014800EA0D0000EC0D0000EE0D0000F00D0000BF
:10015800F20D0000F40D0000F60D0000F80D00008F
:10016800FA0D000000000000000000000000000080
:10017800000000000000000000000000FC0D00006E
:10018800000000000000000000000000FE0D00005C
:10019800000E0000020E0000040E0000060E000013
:1001A800080E00000A0E00000C0E00000E0E0000E3
:1001B800100E0000120E0000140E0000160E0000B3
:1001C800180E00001A0E00001C0E00001E0E000083
:1001D8000000000000000000000000000000000017
:1001E8000000000000000000000000000000000007
:0801F8000000000000000000FF
:10020000511126C022C206C4828282441244A240F6
:10021000310182802A86014593F6150091C23295FC
:1002200085810606F5F9828000000000634E050214
:1002300063C305042E86AA857D5515C2854663785D
:10024000B6006356C00006068606E36CB6FE01459E
:1002500063E4C500918D558D85820582F5FA828013
:100260008682C93F2E8582823305A04063D7050070
:10027000B305B040C1B7B305B0408682653F3305D2
:10028000A0408282868263C70500634905005D370E
:100290002E858282B305B040E35B05FE3305A040A6
:1002A000513F3305B040828200003D432A8763738B
:1002B000C3029377F700BDEFADE5937606FF3D8A65
:1002C000BA960CC34CC30CC74CC74107E36BD7FEAF
:1002D00011E28280B306C3408A0697020000969618
:1002E0006780A6002307B700A306B7002306B70060
:1002F000A305B7002305B700A304B7002304B70084
:10030000A303B7002303B700A302B7002302B7007B
:10031000A301B7002301B700A300B7002300B70073
:10032000828093F5F50F93968500D58D9396050100
:10033000D58D61B793962700970200009696868226
:10034000E78086FA9680C1171D8F3E96E374C3F846
:10035000A5B7B71702409843B706FFF01367170019
:1003600098C3D843758FD8C39843B706F7FEFD16D8
:10037000758F98C39843B706FCFFFD16758F98C319
:10038000D843B70681FFFD16758FD8C337079F0086
:1003900098C737070020832607003777DC0213074A
:1003A00007C06396E606B746024003A706801367B8
:1003B000070123A0E680D843B706C1FFFD16D8C3C6
:1003C000D843D8C3D84313670740D8C3D843758FE1
:1003D000D8C3D843B7061000558FD8C39843B70683
:1003E0000001558F98C3984393166700E3DD06FE1E
:1003F000D843B7160240719BD8C3D8431367270070
:10040000D8C32147DC42B18BE39EE7FE82803747A9
:100410009508130707406397E606B746024003A70F
:1004200006801367070123A0E680D843B706C1FF03
:10043000FD16D8C3D843D8C3D84313670740D8C3E1
:10044000D843758FD8C3D843B7063C00558FD8C35F
:100450009843B7060001558F98C3B71702409843D9
:1004600093166700E3DD06FED843B7160240719B82
:10047000D8C3D84313672700D8C32147DC42B18BC8
:10048000E39EE7FE8280EFF2BFD7B707002003A507
:100490000700B7157A0093850520693B1375F50FA2
:1004A000238FA18093175500898F8A073E950E05EB
:1004B000239EA18099BBEFF2BFD49DCD03D7C1810C
:1004C00037F400E05C40AA853A85F99B5CC099331B
:1004D00008C881475CC81C4093E707011CC01C404A
:1004E00093E717021CC0B7F700E0D843058B75DF10
:1004F0009843799B98C311BB03C7E181D1B7EFF251
:100500003FD085454D3F11B3EFF29FCF37170240E3
:100510001C4F374401409315250093E747001CCF3B
:10052000B717014083A6478037A593D6711193F67C
:10053000F6F023A2D78083A6478013050540130455
:10054000048093E6060B23A2D7801C4F9166D58FBB
:100550001CCF5A24FD779387379FF98F5EA45E24C2
:1005600093E787005EA4F931930540062AC0D9318C
:10057000824793144500930540063E85D531120508
:10058000930540061305250375313D89458D4205C8
:1005900041810AA45E240967D98F5EA41101B5B117
:1005A000B747014083D707807D8D3335A000828017
:1005B000EFF21FC5611101446345C400328521017A
:1005C000A9B11305000432C22EC0D93F824512469C
:1005D0006DD9B387850003870700B747014005043D
:1005E0001377F71F2392E780C1BF37070020130757
:1005F00047001C43938641823E95636BD500B786C6
:1006000000209386068063E5A60008C33E858280AD
:10061000FD57EDBF9357550005476399E700B7179E
:1006200002409C4333D5A700058982800947639621
:10063000E700B71702409C53F5B7B7170240DC53E9
:10064000D5B7373700408357478093F70702E5DF78
:100650008280B737004003D7478013670701239292
:10066000E78082803737004083574780C207C183C5
:10067000BD9BC207C1832312F780828013773500A8
:100680000DE7EFF2FFB7930540062A84D13E93179A
:100690000501C183054589EB930500192285C936FB
:1006A00042054181133515008DB601458280130343
:1006B000E5844203135303019302100863ED6210B3
:1006C000EFF21FB411113EC63AC032C42A848144ED
:1006D0009307207B631EF408FD1513F7F50F3AC24C
:1006E00009635567814713038314130707181246DC
:1006F0009392070193D2020163E4C20A82471395E1
:100700003600158D139447001D8CB2470A04160558
:100710003E94A247AA96D56593850518920613853F
:10072000F7FF3694C53CB7170240D84FB706001004
:100730002A94558FD8CFD84FB70600082694558FE6
:10074000D8CF377700401C4393E707101CC31137FD
:10075000B73700401357040113160401239CE780A8
:100760004182239EC780FD3DE93D0145710171BC79
:100770003E8536CA2EC83EC21137B786E2013737EA
:10078000E10113830650924713070738C245D2464A
:1007900011C59A948507C207C1832DBFBA94DDBFE6
:1007A0003305F3000821BA8536CC3EC816CA9D34FD
:1007B000AA942285E135D5671387071889671383C3
:1007C00087148543C247E24609C5D242639372004B
:1007D000BA94850729BF054582801303E584420347
:1007E000135303019302100863ED6210EFF25FA14F
:1007F00011113EC63AC032C42A8481449307207B3B
:10080000631EF408FD1513F7F50F3AC20963556727
:1008100081471303831413070718124693920701A5
:1008200093D2020163E4C20A824713953600158D04
:10083000139447001D8CB2470A0416053E94A24744
:10084000AA96D5659385051892061385F7FF369409
:10085000D132B7170240D84FB70600102A94558FEF
:10086000D8CFD84FB70600082694558FD8CF377702
:1008700000401C4393E707101CC3E13BB73700401F
:1008800013570401131604012390E7824182239237
:10089000C782C93B7D330145710185BA3E8536CAA1
:1008A0002EC83EC2E13BB786E2013737E101138330
:1008B0000650924713070738C245D24611C59A948D
:1008C0008507C207C1832DBFBA94DDBF3305F3008E
:1008D0000821BA8536CC3EC816CA2D3AAA9422857C
:1008E000713BD5671387071889671383871485437E
:1008F000C247E24609C5D24263937200BA948507A3
:1009000029BF05458280EFF2BF8F61112EC093058C
:100910004006B2842AC2A93212471374F50F930518
:1009200040063A85013A1375F50F4D476376A700E7
:100930009307440613F4F70F135524009D452295A1
:10094000053282470967130747153E970346F7FFAD
:1009500093773400B29426954205418181EB02479A
:10096000894763E5E7007D15420541819D45EFF02C
:100970003F8F1375F50F21016FF03F893737004026
:100980008357478003570780C207698FC18319C700
:100990007D8D1375F50F3335A0008280014582806F
:1009A000B736004083D7868103D5C68103D78681B9
:1009B000C207131605014207C18341834182938612
:1009C00006806386E700CA2E4207598D8280139500
:1009D0000701518D8280EFF2BF826111D137D56559
:1009E00093850518AA84EFF0FF849387A1819A2349
:1009F000630FA7048AA32A849307207B1307C016DA
:100A0000637587023E853EC0953982471307C0163D
:100A10009306D016850741CD6307D400130424E95B
:100A2000C207C183F1BFC207C183138701815EA3DF
:100A3000ED450147938701819306170063EC850616
:100A400093F6F60F0504F4A31374F40FE0B3D56521
:100A5000938505182685EFF0BF808564938504E1B2
:100A60002AC0EFF02FFD8247138401811375F50F23
:100A700008A0938504E13E85EFF08FFE9305C00347
:100A8000AA84EFF02FFB1375F50F08B09305C00390
:100A90002685EFF0EFFC1375F50F28A04A206C2097
:100AA0007030953508A4014521016FF00FF613044D
:100AB00034E9BDB7CA2336C23AC0C936096693873E
:100AC00001810247ED459246130686140543F14223
:100AD00011C963196700E30554F60D141397060155
:100AE000418399BF32971823E36CE4F4198CFDB766
:100AF000EFF20FF1B7170240D84FB70600100144CC
:100B0000558FD8CFD84FB7060008558FD8CFB776B6
:100B1000004098421367071098C2D8531367170014
:100B2000D8D313051006FD349307A00F01ED63150C
:100B3000F40005456FF06FED050451451374F40F93
:100B40007D3AC5B70545E307F4FEB7170240985351
:100B5000A1661367072098D39853558F98D3D5343F
:100B60003737004083574780C207C183DD9BC207E8
:100B7000C1832312F780373700408357478013041F
:100B80000780A18BFDDB83570780A9649384C41A77
:100B900093E727002310F7808357078093E7170018
:100BA0002310F780793C37730040835743C0638834
:100BB000F4024534E17793C7F7FF231404005EA4E1
:100BC0004934814713072003B54655469D45130513
:100BD000707EF13C413C37730040232293C0B7E75D
:100BE00000E0A38907403707080023A0E710E5339A
:100BF000014589B7371702401C4FC576FD1693E7AC
:100C000087001CCFB717014003A707C0758F23A02B
:100C1000E7C003A707C08D66558F23A0E7C003A7D1
:100C200007C0B706F1FFFD16758F23A0E7C003A725
:100C300007C0B7060300558F23A0E7C003A707C16D
:100C4000B70610FFFD161367070123A8E7C003A727
:100C500007C0758F23A0E7C003A707C0B706300001
:100C6000558F23A0E7C08280EFF28FD9B7170140DC
:100C700003A7C7C01347870023A6E7C003A7C7C0C1
:100C80001347070123A6E7C003A7C7C013470702FE
:100C900023A6E7C0EFF0BF866FF02FD7EFF24FD655
:100CA0006111EFF04FFEB937716513050520EFF0C4
:100CB000BF85B707002083A507003725000013056F
:100CC000850EE522372500001305850FF5240D3527
:100CD000F94713073002B54655469D451305707E0A
:100CE000ED3C138401811305A00FBD3F1305A00F38
:100CF000A53F1305A00F8D3F1305A00FB53737256E
:100D00000000130585104D2C4E20702074301824DF
:100D10001C200830034324002AC0372500001AC2D3
:100D20001305C5125922C1B70545893911C165316D
:100D30000945A93115C1372500001305850CAD2CD7
:100D40003737004083574780C207C183F59BC207EE
:100D5000C1832312F78041313737004083574780E2
:100D6000C207C183E99BC207C1832312F780EFF05A
:100D70005F8D7300203001A001A001A001A001A09F
:100D800001A001A001A001A001A001A001A001A05B
:100D900001A001A001A001A001A001A001A001A04B
:100DA00001A001A001A001A001A001A001A001A03B
:100DB00001A001A001A001A001A001A001A001A02B
:100DC00001A001A001A001A001A001A001A001A01B
:100DD00001A001A001A001A001A001A001A001A00B
:100DE00001A001A001A001A001A001A001A001A0FB
:100DF00001A001A001A001A001A001A001A001A0EB
:100E000001A001A001A001A001A001A001A001A0DA
:100E100001A001A001A001A001A001A001A001A0CA
:100E200097010020938181A4177100201301811D77
:100E3000171500001305C53C97F5FF1F9385851C0A
:100E40001386818063FAC5008322050023A0550024
:100E500011059105E3EAC5FE1385818093854182E2
:100E60006377B500232005001105E36DB5FEFD4253
:100E7000739002BCAD4273904280B76200009382CF
:100E8000820873A0023097F2FFFF9382221B93E245
:100E9000320073905230EFF0CFCB97020000938274
:100EA00022E073901234730020301301C1FD3ED054
:100EB0002EC832CA36CC3ACE97F7FF1F9387071B4E
:100EC00022C4804326C206C6AA8409C41C4C99E3E6
:100ED0002285F5290C4414082686228536C0EF00A9
:100EE0003013B240224492441301410282804111E6
:100EF00026C206C622C42EC0AA8401C5184D11E31D
:100F0000F921984C804419E32685D1211717000058
:100F1000130747276312E402C0405A24218B19C3E8
:100F2000184821EFA2852685852221C97D55B2402A
:100F3000224492444101828017170000130787263C
:100F40006314E4008044D1BF171700001307872102
:100F5000E315E4FCC044D1B7824718C485073EC0FE
:100F600063580700144C634BD70229476388E50296
:100F700018409306170014C00CA3824718448C2312
:100F80007D17F9F918C4635207022286A945268500
:100F90001D28FD57E30CF5F8294551BF228626850B
:100FA0001D207D57E31BE5FC51B71C40138717003C
:100FB00018C0294798A3CDB797F7FF1F9387070B52
:100FC000AA8588432DB7311122C626C406C8AA8730
:100FD000AE84328411C5184D01E72AC0CD2E824758
:100FE000171700001307071A6318E406C043184CCC
:100FF00018C45A24218B49C318483DCF18480840CB
:1010000093F6F40F93F4F40F198D5848634AE500F2
:101010003E85A28536C23EC0692C824792463DE19C
:10102000184405057D1718C418401306170010C092
:1010300014A358486308A7005A24058B01CB2947FD
:101040006396E400A2853E85AD240DEDC240324496
:101050002685A244510182801717000013078714C8
:101060006314E400804761B7171700001307870F68
:10107000E31FE4F6C047A5BF3E85A2853EC02920F8
:1010800082472DDDFD54D9B7411197F7FF1F938794
:10109000E7FD26C2844322C406C6AA862E8499C4CC
:1010A0009C4C89E72AC026851D268246971700009A
:1010B0009387470D6319F402C0400317C4009317C8
:1010C0000701C18313F687002DEA13F6070105EE29
:1010D000A5479CC2136707045AA47D55B240224419
:1010E000924441018280971700009387A70B6314F5
:1010F000F4008044D9B7971700009387A706E31E32
:10110000F4FAC0445DBF918B8DC74C5899C99307C1
:1011100044046386F500368536C021238246232A9F
:1011200004025E242322040093F7B7FD5EA41C484A
:101130001CC05E2493E787005EA41C4899EB5E24E4
:101140001307002093F707286385E700A2853685FB
:1011500099215E2413F717001DC35C482324040063
:10116000B307F0401CCC1C480145ADFB8317C400FD
:1011700013F7070825D793E707045EA4B9BF898B47
:10118000014791E3584818C4F9BFD625311122C64A
:1011900006C826C413F78600AA872E8471EBD841AF
:1011A000634BE000B8416348E0000145C24032446F
:1011B000A2445101828058546DDB8443139636015A
:1011C00023A00700635C060670485A24118B19C7D8
:1011D0005840198E585819C33840198E58540C501D
:1011E00081463E853EC002977D5756248247631D47
:1011F000E500904375476368C70637074020050739
:101200003357C700058B25C318482322040018C094
:1012100013973601635807007D576314E500984320
:1012200011E368C84C5884C3C9D1130744046384CC
:10123000E5003E85FD26232A040285BF0C500146A9
:101240003E8585463EC002977D572A868247E31E2B
:10125000E5F698433DDBF5466305D700D9466312B2
:10126000D70484C399B793E6060456A47D553DBFC1
:10127000984905DF84418D8A98C1998C014691E295
:10128000D04910C4E35390F2032384020C503A86F1
:101290003E85A6863AC23EC0029382471247634704
:1012A000A0005E2493E707045EA4C9B72A97898C3F
:1012B000D1BF9C49B9CF411122C406C62A8411C5A9
:1012C0001C4D81E72EC0212282459717000093878D
:1012D00067EB639BF5004C408397C50095C722855B
:1012E0002244B240410155B597170000938787EB20
:1012F0006394F5000C44CDB797170000938787E6F9
:10130000E39CF5FC4C44C9BFB24022440145410175
:10131000828001458280511122C206C42A844EA5D2
:1013200072A5232005002322050023240500232283
:10133000050623280500232A0500232C0500214645
:1013400081451305C505EFE05FF697170000938709
:10135000A7B75CD0971700009387C7B91CD497171D
:1013600000009387A7BD5CD497170000938707C040
:1013700000D01CD8A24012443101828097050000A1
:10138000938565F389AA41111386F5FF22C41314CE
:10139000160032940A0432940E042EC093054407BA
:1013A00026C206C63D26AA8409CD82472320050011
:1013B0003105232CF5FE88C4130684068145EFE031
:1013C000DFEEB240224426859244410182801C4DCA
:1013D000BDE3511106C422C297070000938747FA64
:1013E0001CD597F7FF1F9387A7C89C4323240504A8
:1013F00023260504232805046314F50085471CCD26
:101400002A841D2848C02285052808C422852D204D
:1014100048C4484001469145FD3D08440546A54560
:10142000DD3D48440946C945FD3585471CCCA240F1
:101430001244310182808280411197F7FF1F938708
:1014400027C322C4804326C206C61C4CAA8499E343
:101450002285B53F930784048047D8437D176356A0
:101460000700984331CF9C43C5BF8316C400B1E643
:10147000C1778507232204062320040023220400C9
:10148000232404005CC423280400232A0400232C02
:101490000400214681451305C405EFE01FE1232A1E
:1014A0000402232C0402232404042326040422859A
:1014B000B24022449244410182801304840679BFE1
:1014C000914526853EC0C135824788C349FDB14755
:1014D0009CC00144E9BF111122CA06CC26C8AA86C5
:1014E0002E8613048504814719E4E2405244C24425
:1014F0003E8571018280044458407D176354070083
:101500000040DDB7CA24854563F3A5020395E400D6
:10151000FD55630EB5003685A6853EC63AC436C273
:1015200032C00296B247224792460246C98F938440
:101530008406E1B7AE878395E5005971A6D286D6B9
:10154000A2D4B28463DB0500DE2723A0060093F754
:1015500007088DEB9307004005A81304F10061987C
:10156000228636C23EC0EF00F02582479246E34D08
:1015700005FC5840BD67F98F7977BA9793B7170084
:101580009CC2C9BF93070004B65026549CC00145B5
:10159000965465618280DA25211122C806CA26C6C2
:1015A000098B2E8401CF930774041CC01CC8854787
:1015B0005CC8D2404244B244610182803400500091
:1015C000AA848D3F92452AC02685212219E98317D6
:1015D000C40013F7072071FFF19B93E727005EA477
:1015E000D9B7170700001307A7D998D45A2408C001
:1015F00008C8136707085AA4124758C8224701CFE2
:101600008315E4002685EF00901E11C55E24F19B32
:1016100093E717005EA45E240247B364F70046A474
:1016200049BFDDC583A7C5FF511122C206C426C02C
:101630001384C5FF63D307003E94AA84EF00F02112
:1016400097F7FF1F938707A39C4391EF2322040082
:1016500097F7FF1F23A087A21244A2402685824449
:1016600031016F00B01F637EF40014403307D400D3
:101670006396E7009843DC43369718C05CC0C9BF47
:10168000BA87D84319C3E37DE4FE94433386D70079
:10169000631F86001040B29694C33386D700E31DC3
:1016A000C7FA10435843B29694C3D8C375B763754D
:1016B000C400B1479CC04DB71040B306C4006316C8
:1016C000D70014435843B29614C058C0C0C369B77A
:1016D0008280411126C293843500F19806C622C447
:1016E000A104B14763F7F404B14463E6B4042AC02B
:1016F000EF00B0161387818014438247368421E4BB
:101700001387C180184301EB3E8581453EC0712798
:1017100023A6A18082473E85A6853EC0BD2F7D576A
:1017200082476316E506314798C33E85EF001013E4
:1017300029A0E3DC04FAB1471CC10145B2402244B0
:101740009244410182801840058F634F07022D4665
:101750006376E60018C03A9404C031A05840639301
:10176000860223A4E1803E85EF00500F1305B400EC
:10177000130744006199B307E540E9D33E94098F0C
:1017800018C06DBFD8C2C5B7A28640408DBF130434
:1017900035007198E30285FCB305A4403E853EC048
:1017A000ED2D7D578247E319E5FAB5BF1C46FD17BD
:1017B0001CC663DA0700184E63C5E700A9476394A7
:1017C000F5006FF05F801C422E851387170018C24A
:1017D0008CA38280311122C626C406C8AA872E8710
:1017E0003284B304D60063149400014529A80C2068
:1017F0003A863E853AC23EC0553FFD5605048247B3
:101800001247E312D5FEC2403244A2445101828005
:10181000130181F722C1A6DE9307F10106C32AC096
:1018200032C22E8493F487FF11C5184D01E736C6E6
:10183000793EB246171700001307C7946310E40EF1
:101840008247C0435A24218B630C070E18486DCB86
:101850001307000298BC1307000323AA0400B8ACC6
:1018600036CA124713065002142399C26399C60E52
:1018700092473303F7406301030202459A863E868E
:10188000A2853AC81AC6B937FD566305D520D44893
:10189000324342479A96D4C81423638D061E13031D
:1018A00017007D5723A0040023A60400D8C023A45A
:1018B0000400A381040423AC0404834503001546FB
:1018C00017150000130505901AC2EF008077124328
:1018D00094401307130051E513F6060109C61306D9
:1018E0000002A381C40413F6860009C61306B002E1
:1018F000A381C404834503001306A0026380C508C6
:10190000D4441A8781452545102313031700130675
:1019100006FD6378C50ABDC9D4C48DA81717000099
:10192000130747886315E4008247804721BF1717D4
:10193000000013072783E317E4F08247C04719B775
:101940000245A28536C6EFF02FF4B246E30205F059
:101950007D559A400A44F654130181088280050798
:1019600021B7171600001306E6853306C540054566
:101970003315C500C98E94C03A8381B7524693058A
:10198000460010422ECA63470602D0C410239306B5
:10199000E0026311D60610339306A002631ED6023E
:1019A000D246090713864600944232CA63C406022F
:1019B000D4C089A03306C04093E62600D0C494C0AA
:1019C000F1B71397260036970607B306C70085457B
:1019D0001A871DBFFD56E9BF050723A204008145F4
:1019E00081462545102313031700130606FD637770
:1019F000C506DDFD0C230D46170500001305057D0A
:101A00003AC28125124711CD970600009386067CC5
:101A1000158D93060004B396A60088400507558DE2
:101A200088C00C23930717001946170500001305FB
:101A3000257A3EC28CAC31252DC517E7FFFF130771
:101A4000675C05EB9440524793F606108DC2110770
:101A50003ACAD848A2473E97D8C821B5139726005E
:101A600036970607B306C70085451A87A5BF210725
:101A7000C5B702455808970600009386E6D522862A
:101A8000A68597000000E70000002AC4A2477D5702
:101A9000E391E7FC5A2413770704E31B07EAC848DD
:101AA0004DBD02455808970600009386E6D222866F
:101AB000A685052AD9BF011126CA3283B68490456E
:101AC000944922CC06CE2A84AE8763D3C600B28660
:101AD0002320D30003C6370401C685062320D30084
:101AE000944393F6060291C68326030089062320B9
:101AF000D30083A207009383970193F2620063836C
:101B00000206904383C6370413760602B336D0002C
:101B100041EA13863704A68522851AC43EC23AC01C
:101B20000297FD566308D506924722431145944318
:101B300003260300CC47998A014302476397A60016
:101B40003383C5406353030001439447904B635470
:101B5000D600918E36938142E90763125306014500
:101B60001DA88502D44703260300918EE3DBD2F83B
:101B700085461E86A68522851AC83EC616C41EC284
:101B80003AC00297FD5602479243A242B2474243EF
:101B9000E319D5FC7D55F2406244D2440561828050
:101BA000B385D70013050003A381A50483C557049B
:101BB000138616003E968906A301B60499BF854692
:101BC0003E86A685228516C61AC43EC23AC0029732
:101BD000FD56E301D5FCB2422243924785020247FB
:101BE000ADBF130141FD22D206D426D032C2902DC2
:101BF00036C42AC0930690062E8493823504630D62
:101C0000D60263E2C60693068005630ED61863ED1E
:101C1000C6006306062293063004630CD60A9304BA
:101C200024042301C4047DA8930630066303D60A66
:101C300093064006E315D6FE1440084313F6060843
:101C40009305450055C214410CC363D80600130721
:101C5000D002B306D040A301E40417060000130627
:101C6000A657294755A893060007630AD61663E5C9
:101C7000C6029306E0066301D61A9306F006E31047
:101C8000D6FA0C40144313F3050813854600630588
:101C9000030608C39442B5A093065007E303D6FE9B
:101CA000930680076301D61493063007E319D6F62E
:101CB00014431386460010C38442D04181452685D3
:101CC000492619C1058D48C0584018C8A30104040D
:101CD0005DA81443930424041386460010C398425D
:101CE0002301E4040547D5B713F6060414410CC3D9
:101CF00029DEC206C18691BF93F5050408C3D9D970
:101D000096221307F0066301E6101706000013067B
:101D1000A64C2947A30104044C400CC463C505002C
:101D200008406D9908C099E296849DC99684BA8549
:101D3000368516CC32CA3AC836C6EFE06FD2524664
:101D40004247B24632950C21FD1436858CA0BA85E7
:101D5000EFE04FCEB24642475246E24263FCE60A0B
:101D6000A146631ED7001840058B11CB544018487C
:101D70006347D70013070003A38FE4FEFD14B3826B
:101D80009240232854002247924602457008A285BB
:101D90001D337D576319E50A7D55A25012548254B4
:101DA0001301C1028280A382C50417060000130636
:101DB000A6420C40084313F3050814411105630DB6
:101DC000030208C313F7150001C793E505020CC011
:101DD0004147A9F20C4093F5F5FD0CC025BF944195
:101DE00093E6060294C193068007A302D404170663
:101DF00000001306A63F75BF13F3050408C3E303F1
:101E000003FCC206C1827DBF170600001306C63C54
:101E1000214709B7AA8621BF90411443CC491373C7
:101E20000608138546006306030008C398420CC3E6
:101E300039A008C313760604984275DA0EA3232846
:101E40000400968489B7144892450245A247268625
:101E500082977D57E302E5F41840098B1DEB72472A
:101E60004844E35CE5F23A850DBF92450245A2473E
:101E700085461A863AC81AC68297FD56E30ED5F0F3
:101E800042473243050754447246918EE34FD7FCD4
:101E9000F9B7014713039401FDB7511122C22A84F7
:101EA0002E8523A0018206C4EFE02FF4FD576317AF
:101EB000F500938701829C4391C31CC0A240124449
:101EC00031018280511122C22E848395E50006C41F
:101ED0007922634905007C48AA977CC8A240124435
:101EE000310182805E247D777D17F98F5EA4FDB776
:101EF000DE25311122C626C406C893F70710AA842E
:101F00002E843283B68291CB8395E50036C232C0EF
:101F1000894601460922924202435E247D777D175D
:101F2000F98F5EA48315E4003244C2402685A244A2
:101F300096861A86510125A8511122C22E848395B6
:101F4000E50006C4C928FD575A24631AF500FD7739
:101F5000FD17F98F5EA4A24012443101828085678B
:101F6000D98F5EA468C8C5BF8395E50005A8511147
:101F700022C22A842E85B285368623A0018206C419
:101F8000EFE00FE3FD576317F500938701829C4351
:101F900091C31CC0A240124431018280511122C25F
:101FA0002A842E8523A0018206C4C520FD5763170D
:101FB000F500938701829C4391C31CC0A240124448
:101FC00031018280511122C22A842E85B28523A03C
:101FD000018206C4C920FD576317F500938701826B
:101FE0009C4391C31CC0A240124431018280511114
:101FF00022C22A842E8523A0018206C45D20FD57BB
:102000006317F500938701829C4391C31CC0A240D3
:10201000124431018280511122C22A842E85B28558
:10202000368623A0018206C45920FD576317F500A8
:10203000938701829C4391C31CC0A240124431018A
:10204000828093F5F50F2A966314C50001458280BE
:102050001C21E38EB7FE0505C5BF82808280511129
:1020600022C22A842E85B285368623A0018206C428
:10207000A920FD576317F500938701829C4391C304
:102080001CC0A2401244310182809307800523A026
:10209000F1827D5582809307800523A0F1827D55D2
:1020A00082809307800523A0F182014582809307F7
:1020B000800523A0F1827D5582809307800523A0AF
:1020C000F1827D55828000000D0A0D0A416C61721B
:1020D0006D20636C6F636B20696E746572727570CE
:1020E000740D0A0D0000000053797374656D436C24
:1020F0006B3A25640D0A0000525443204E6F4C6920
:102100006220546573740D00796561722F6D6F6E76
:1021100074682F6461792F7765656B2F686F7572AE
:102120002F6D696E2F7365633A0D000025642D25B0
:10213000642D256420202564202025643A25643AF6
:1021400025640D0A000000001F1C1F1E1F1E1F1FFC
:102150001E1F1E1F000303060104060205000305DF
:10216000000000000000000000000000000000006F
:10217000000000000000000000000000000000005F
:10218000000000000000000000000000000000004F
:10219000000000000000000000000000000000003F
:1021A000000000000000000000000000000000002F
:1021B000000000000000000000000000000000001F
:1021C000232D302B20000000686C4C0065666745AD
:1021D00046470000303132333435363738394142E2
:1021E0004344454600000000303132333435363741
:0C21F0003839616263646566000000001D
:1021FC00004495088C0000200000000080210000A5
:10220C00A021000060210000000000000000000080
:10221C0000000000000000000000000000000000B2
:10222C0000000000000000000000000000000000A2
:10223C000000000000000000000000000000000092
:10224C000000000000000000000000000000000082
:10225C000000000000000000080000200800002022
:00000001FF
